{
  "contractName": "ERC827Token",
  "abi": [
    {
      "constant": false,
      "inputs": [
        {
          "name": "_spender",
          "type": "address"
        },
        {
          "name": "_value",
          "type": "uint256"
        }
      ],
      "name": "approve",
      "outputs": [
        {
          "name": "",
          "type": "bool"
        }
      ],
      "payable": false,
      "stateMutability": "nonpayable",
      "type": "function"
    },
    {
      "constant": true,
      "inputs": [],
      "name": "totalSupply",
      "outputs": [
        {
          "name": "",
          "type": "uint256"
        }
      ],
      "payable": false,
      "stateMutability": "view",
      "type": "function"
    },
    {
      "constant": false,
      "inputs": [
        {
          "name": "_from",
          "type": "address"
        },
        {
          "name": "_to",
          "type": "address"
        },
        {
          "name": "_value",
          "type": "uint256"
        }
      ],
      "name": "transferFrom",
      "outputs": [
        {
          "name": "",
          "type": "bool"
        }
      ],
      "payable": false,
      "stateMutability": "nonpayable",
      "type": "function"
    },
    {
      "constant": false,
      "inputs": [
        {
          "name": "_spender",
          "type": "address"
        },
        {
          "name": "_subtractedValue",
          "type": "uint256"
        }
      ],
      "name": "decreaseApproval",
      "outputs": [
        {
          "name": "",
          "type": "bool"
        }
      ],
      "payable": false,
      "stateMutability": "nonpayable",
      "type": "function"
    },
    {
      "constant": true,
      "inputs": [
        {
          "name": "_owner",
          "type": "address"
        }
      ],
      "name": "balanceOf",
      "outputs": [
        {
          "name": "",
          "type": "uint256"
        }
      ],
      "payable": false,
      "stateMutability": "view",
      "type": "function"
    },
    {
      "constant": false,
      "inputs": [
        {
          "name": "_to",
          "type": "address"
        },
        {
          "name": "_value",
          "type": "uint256"
        }
      ],
      "name": "transfer",
      "outputs": [
        {
          "name": "",
          "type": "bool"
        }
      ],
      "payable": false,
      "stateMutability": "nonpayable",
      "type": "function"
    },
    {
      "constant": false,
      "inputs": [
        {
          "name": "_spender",
          "type": "address"
        },
        {
          "name": "_addedValue",
          "type": "uint256"
        }
      ],
      "name": "increaseApproval",
      "outputs": [
        {
          "name": "",
          "type": "bool"
        }
      ],
      "payable": false,
      "stateMutability": "nonpayable",
      "type": "function"
    },
    {
      "constant": true,
      "inputs": [
        {
          "name": "_owner",
          "type": "address"
        },
        {
          "name": "_spender",
          "type": "address"
        }
      ],
      "name": "allowance",
      "outputs": [
        {
          "name": "",
          "type": "uint256"
        }
      ],
      "payable": false,
      "stateMutability": "view",
      "type": "function"
    },
    {
      "anonymous": false,
      "inputs": [
        {
          "indexed": true,
          "name": "owner",
          "type": "address"
        },
        {
          "indexed": true,
          "name": "spender",
          "type": "address"
        },
        {
          "indexed": false,
          "name": "value",
          "type": "uint256"
        }
      ],
      "name": "Approval",
      "type": "event"
    },
    {
      "anonymous": false,
      "inputs": [
        {
          "indexed": true,
          "name": "from",
          "type": "address"
        },
        {
          "indexed": true,
          "name": "to",
          "type": "address"
        },
        {
          "indexed": false,
          "name": "value",
          "type": "uint256"
        }
      ],
      "name": "Transfer",
      "type": "event"
    },
    {
      "constant": false,
      "inputs": [
        {
          "name": "_spender",
          "type": "address"
        },
        {
          "name": "_value",
          "type": "uint256"
        },
        {
          "name": "_data",
          "type": "bytes"
        }
      ],
      "name": "approveAndCall",
      "outputs": [
        {
          "name": "",
          "type": "bool"
        }
      ],
      "payable": true,
      "stateMutability": "payable",
      "type": "function"
    },
    {
      "constant": false,
      "inputs": [
        {
          "name": "_to",
          "type": "address"
        },
        {
          "name": "_value",
          "type": "uint256"
        },
        {
          "name": "_data",
          "type": "bytes"
        }
      ],
      "name": "transferAndCall",
      "outputs": [
        {
          "name": "",
          "type": "bool"
        }
      ],
      "payable": true,
      "stateMutability": "payable",
      "type": "function"
    },
    {
      "constant": false,
      "inputs": [
        {
          "name": "_from",
          "type": "address"
        },
        {
          "name": "_to",
          "type": "address"
        },
        {
          "name": "_value",
          "type": "uint256"
        },
        {
          "name": "_data",
          "type": "bytes"
        }
      ],
      "name": "transferFromAndCall",
      "outputs": [
        {
          "name": "",
          "type": "bool"
        }
      ],
      "payable": true,
      "stateMutability": "payable",
      "type": "function"
    },
    {
      "constant": false,
      "inputs": [
        {
          "name": "_spender",
          "type": "address"
        },
        {
          "name": "_addedValue",
          "type": "uint256"
        },
        {
          "name": "_data",
          "type": "bytes"
        }
      ],
      "name": "increaseApprovalAndCall",
      "outputs": [
        {
          "name": "",
          "type": "bool"
        }
      ],
      "payable": true,
      "stateMutability": "payable",
      "type": "function"
    },
    {
      "constant": false,
      "inputs": [
        {
          "name": "_spender",
          "type": "address"
        },
        {
          "name": "_subtractedValue",
          "type": "uint256"
        },
        {
          "name": "_data",
          "type": "bytes"
        }
      ],
      "name": "decreaseApprovalAndCall",
      "outputs": [
        {
          "name": "",
          "type": "bool"
        }
      ],
      "payable": true,
      "stateMutability": "payable",
      "type": "function"
    }
  ],
  "bytecode": "0x608060405234801561001057600080fd5b50610af2806100206000396000f3006080604052600436106100c45763ffffffff7c0100000000000000000000000000000000000000000000000000000000600035041663095ea7b381146100c957806318160ddd1461010157806323b872dd146101285780634000aea01461015257806366188463146101ae57806370a08231146101d257806390db623f146101f3578063a9059cbb1461024f578063c1d34b8914610273578063cae9ca51146102d5578063cb3993be14610331578063d73dd6231461038d578063dd62ed3e146103b1575b600080fd5b3480156100d557600080fd5b506100ed600160a060020a03600435166024356103d8565b604080519115158252519081900360200190f35b34801561010d57600080fd5b50610116610442565b60408051918252519081900360200190f35b34801561013457600080fd5b506100ed600160a060020a0360043581169060243516604435610448565b604080516020600460443581810135601f81018490048402850184019095528484526100ed948235600160a060020a03169460248035953695946064949201919081908401838280828437509497506105c89650505050505050565b3480156101ba57600080fd5b506100ed600160a060020a0360043516602435610683565b3480156101de57600080fd5b50610116600160a060020a036004351661077c565b604080516020600460443581810135601f81018490048402850184019095528484526100ed948235600160a060020a03169460248035953695946064949201919081908401838280828437509497506107979650505050505050565b34801561025b57600080fd5b506100ed600160a060020a03600435166024356107c4565b604080516020601f6064356004818101359283018490048402850184019095528184526100ed94600160a060020a0381358116956024803590921695604435953695608494019181908401838280828437509497506108bd9650505050505050565b604080516020600460443581810135601f81018490048402850184019095528484526100ed948235600160a060020a031694602480359536959460649492019190819084018382808284375094975061097a9650505050505050565b604080516020600460443581810135601f81018490048402850184019095528484526100ed948235600160a060020a03169460248035953695946064949201919081908401838280828437509497506109a79650505050505050565b34801561039957600080fd5b506100ed600160a060020a03600435166024356109d4565b3480156103bd57600080fd5b50610116600160a060020a0360043581169060243516610a76565b600160a060020a03338116600081815260026020908152604080832094871680845294825280832086905580518681529051929493927f8c5be1e5ebec7d5bd14f71427d1e84f3dd0314c0f7b2291e5b200ac8c7c3b925929181900390910190a350600192915050565b60015490565b6000600160a060020a038316151561045f57600080fd5b600160a060020a03841660009081526020819052604090205482111561048457600080fd5b600160a060020a03808516600090815260026020908152604080832033909416835292905220548211156104b757600080fd5b600160a060020a0384166000908152602081905260409020546104e0908363ffffffff610aa116565b600160a060020a038086166000908152602081905260408082209390935590851681522054610515908363ffffffff610ab316565b600160a060020a038085166000908152602081815260408083209490945587831682526002815283822033909316825291909152205461055b908363ffffffff610aa116565b600160a060020a038086166000818152600260209081526040808320338616845282529182902094909455805186815290519287169391927fddf252ad1be2c89b69c2b068fc378daa952ba7f163c4a11628f55a4df523b3ef929181900390910190a35060019392505050565b600030600160a060020a031684600160a060020a0316141515156105eb57600080fd5b6105f584846107c4565b5083600160a060020a0316348360405180828051906020019080838360005b8381101561062c578181015183820152602001610614565b50505050905090810190601f1680156106595780820380516001836020036101000a031916815260200191505b5091505060006040518083038185875af192505050151561067957600080fd5b5060019392505050565b600160a060020a033381166000908152600260209081526040808320938616835292905290812054808311156106e057600160a060020a033381166000908152600260209081526040808320938816835292905290812055610717565b6106f0818463ffffffff610aa116565b600160a060020a033381166000908152600260209081526040808320938916835292905220555b600160a060020a0333811660008181526002602090815260408083209489168084529482529182902054825190815291517f8c5be1e5ebec7d5bd14f71427d1e84f3dd0314c0f7b2291e5b200ac8c7c3b9259281900390910190a35060019392505050565b600160a060020a031660009081526020819052604090205490565b600030600160a060020a031684600160a060020a0316141515156107ba57600080fd5b6105f584846109d4565b6000600160a060020a03831615156107db57600080fd5b600160a060020a03331660009081526020819052604090205482111561080057600080fd5b600160a060020a033316600090815260208190526040902054610829908363ffffffff610aa116565b600160a060020a03338116600090815260208190526040808220939093559085168152205461085e908363ffffffff610ab316565b600160a060020a03808516600081815260208181526040918290209490945580518681529051919333909316927fddf252ad1be2c89b69c2b068fc378daa952ba7f163c4a11628f55a4df523b3ef92918290030190a350600192915050565b600030600160a060020a031684600160a060020a0316141515156108e057600080fd5b6108eb858585610448565b5083600160a060020a0316348360405180828051906020019080838360005b8381101561092257818101518382015260200161090a565b50505050905090810190601f16801561094f5780820380516001836020036101000a031916815260200191505b5091505060006040518083038185875af192505050151561096f57600080fd5b506001949350505050565b600030600160a060020a031684600160a060020a03161415151561099d57600080fd5b6105f584846103d8565b600030600160a060020a031684600160a060020a0316141515156109ca57600080fd5b6105f58484610683565b600160a060020a033381166000908152600260209081526040808320938616835292905290812054610a0c908363ffffffff610ab316565b600160a060020a0333811660008181526002602090815260408083209489168084529482529182902085905581519485529051929391927f8c5be1e5ebec7d5bd14f71427d1e84f3dd0314c0f7b2291e5b200ac8c7c3b9259281900390910190a350600192915050565b600160a060020a03918216600090815260026020908152604080832093909416825291909152205490565b600082821115610aad57fe5b50900390565b81810182811015610ac057fe5b929150505600a165627a7a723058205326d5b4c4a70c4df900b8d3375e4dd89b9303cd37656fcb397c2a7fedc5a2e00029",
  "source": "/* solium-disable security/no-low-level-calls */\n\npragma solidity ^0.4.23;\n\nimport \"./ERC827.sol\";\nimport \"../ERC20/StandardToken.sol\";\n\n\n/**\n * @title ERC827, an extension of ERC20 token standard\n *\n * @dev Implementation the ERC827, following the ERC20 standard with extra\n * @dev methods to transfer value and data and execute calls in transfers and\n * @dev approvals.\n *\n * @dev Uses OpenZeppelin StandardToken.\n */\ncontract ERC827Token is ERC827, StandardToken {\n\n  /**\n   * @dev Addition to ERC20 token methods. It allows to\n   * @dev approve the transfer of value and execute a call with the sent data.\n   *\n   * @dev Beware that changing an allowance with this method brings the risk that\n   * @dev someone may use both the old and the new allowance by unfortunate\n   * @dev transaction ordering. One possible solution to mitigate this race condition\n   * @dev is to first reduce the spender's allowance to 0 and set the desired value\n   * @dev afterwards:\n   * @dev https://github.com/ethereum/EIPs/issues/20#issuecomment-263524729\n   *\n   * @param _spender The address that will spend the funds.\n   * @param _value The amount of tokens to be spent.\n   * @param _data ABI-encoded contract call to call `_to` address.\n   *\n   * @return true if the call function was executed successfully\n   */\n  function approveAndCall(\n    address _spender,\n    uint256 _value,\n    bytes _data\n  )\n    public\n    payable\n    returns (bool)\n  {\n    require(_spender != address(this));\n\n    super.approve(_spender, _value);\n\n    // solium-disable-next-line security/no-call-value\n    require(_spender.call.value(msg.value)(_data));\n\n    return true;\n  }\n\n  /**\n   * @dev Addition to ERC20 token methods. Transfer tokens to a specified\n   * @dev address and execute a call with the sent data on the same transaction\n   *\n   * @param _to address The address which you want to transfer to\n   * @param _value uint256 the amout of tokens to be transfered\n   * @param _data ABI-encoded contract call to call `_to` address.\n   *\n   * @return true if the call function was executed successfully\n   */\n  function transferAndCall(\n    address _to,\n    uint256 _value,\n    bytes _data\n  )\n    public\n    payable\n    returns (bool)\n  {\n    require(_to != address(this));\n\n    super.transfer(_to, _value);\n\n    // solium-disable-next-line security/no-call-value\n    require(_to.call.value(msg.value)(_data));\n    return true;\n  }\n\n  /**\n   * @dev Addition to ERC20 token methods. Transfer tokens from one address to\n   * @dev another and make a contract call on the same transaction\n   *\n   * @param _from The address which you want to send tokens from\n   * @param _to The address which you want to transfer to\n   * @param _value The amout of tokens to be transferred\n   * @param _data ABI-encoded contract call to call `_to` address.\n   *\n   * @return true if the call function was executed successfully\n   */\n  function transferFromAndCall(\n    address _from,\n    address _to,\n    uint256 _value,\n    bytes _data\n  )\n    public payable returns (bool)\n  {\n    require(_to != address(this));\n\n    super.transferFrom(_from, _to, _value);\n\n    // solium-disable-next-line security/no-call-value\n    require(_to.call.value(msg.value)(_data));\n    return true;\n  }\n\n  /**\n   * @dev Addition to StandardToken methods. Increase the amount of tokens that\n   * @dev an owner allowed to a spender and execute a call with the sent data.\n   *\n   * @dev approve should be called when allowed[_spender] == 0. To increment\n   * @dev allowed value is better to use this function to avoid 2 calls (and wait until\n   * @dev the first transaction is mined)\n   * @dev From MonolithDAO Token.sol\n   *\n   * @param _spender The address which will spend the funds.\n   * @param _addedValue The amount of tokens to increase the allowance by.\n   * @param _data ABI-encoded contract call to call `_spender` address.\n   */\n  function increaseApprovalAndCall(\n    address _spender,\n    uint _addedValue,\n    bytes _data\n  )\n    public\n    payable\n    returns (bool)\n  {\n    require(_spender != address(this));\n\n    super.increaseApproval(_spender, _addedValue);\n\n    // solium-disable-next-line security/no-call-value\n    require(_spender.call.value(msg.value)(_data));\n\n    return true;\n  }\n\n  /**\n   * @dev Addition to StandardToken methods. Decrease the amount of tokens that\n   * @dev an owner allowed to a spender and execute a call with the sent data.\n   *\n   * @dev approve should be called when allowed[_spender] == 0. To decrement\n   * @dev allowed value is better to use this function to avoid 2 calls (and wait until\n   * @dev the first transaction is mined)\n   * @dev From MonolithDAO Token.sol\n   *\n   * @param _spender The address which will spend the funds.\n   * @param _subtractedValue The amount of tokens to decrease the allowance by.\n   * @param _data ABI-encoded contract call to call `_spender` address.\n   */\n  function decreaseApprovalAndCall(\n    address _spender,\n    uint _subtractedValue,\n    bytes _data\n  )\n    public\n    payable\n    returns (bool)\n  {\n    require(_spender != address(this));\n\n    super.decreaseApproval(_spender, _subtractedValue);\n\n    // solium-disable-next-line security/no-call-value\n    require(_spender.call.value(msg.value)(_data));\n\n    return true;\n  }\n\n}\n",
  "sourcePath": "openzeppelin-solidity/contracts/token/ERC827/ERC827Token.sol",
  "compiler": {
    "name": "solc",
    "version": "0.4.23+commit.124ca40d.Emscripten.clang"
  },
  "schemaVersion": "2.0.0",
  "updatedAt": "2018-06-14T06:24:18.386Z"
}