{
  "contractName": "Target",
  "abi": [
    {
      "constant": true,
      "inputs": [],
      "name": "a",
      "outputs": [
        {
          "name": "",
          "type": "uint256"
        }
      ],
      "payable": false,
      "stateMutability": "view",
      "type": "function"
    },
    {
      "constant": true,
      "inputs": [],
      "name": "b",
      "outputs": [
        {
          "name": "",
          "type": "uint256"
        }
      ],
      "payable": false,
      "stateMutability": "view",
      "type": "function"
    },
    {
      "constant": true,
      "inputs": [],
      "name": "sent",
      "outputs": [
        {
          "name": "",
          "type": "address"
        }
      ],
      "payable": false,
      "stateMutability": "view",
      "type": "function"
    },
    {
      "constant": false,
      "inputs": [],
      "name": "setO",
      "outputs": [],
      "payable": false,
      "stateMutability": "nonpayable",
      "type": "function"
    },
    {
      "constant": false,
      "inputs": [
        {
          "name": "sender",
          "type": "address"
        },
        {
          "name": "_a",
          "type": "uint256"
        }
      ],
      "name": "setA",
      "outputs": [
        {
          "name": "",
          "type": "bool"
        }
      ],
      "payable": false,
      "stateMutability": "nonpayable",
      "type": "function"
    }
  ],
  "bytecode": "0x608060405234801561001057600080fd5b506103f9806100206000396000f30060806040526004361061006c5763ffffffff7c01000000000000000000000000000000000000000000000000000000006000350416630dbe671f81146100715780634df7e3d014610098578063ac62d359146100ad578063c2bfccc0146100f2578063c5e0fdbf14610130575b600080fd5b34801561007d57600080fd5b50610086610147565b60408051918252519081900360200190f35b3480156100a457600080fd5b5061008661014d565b3480156100b957600080fd5b506100de73ffffffffffffffffffffffffffffffffffffffff60043516602435610153565b604080519115158252519081900360200190f35b3480156100fe57600080fd5b5061010761037a565b6040805173ffffffffffffffffffffffffffffffffffffffff9092168252519081900360200190f35b34801561013c57600080fd5b50610145610396565b005b60005481565b60015481565b6002805473ffffffffffffffffffffffffffffffffffffffff191673ffffffffffffffffffffffffffffffffffffffff848116918217909255604080517f70a082310000000000000000000000000000000000000000000000000000000081526004810192909252516000923316916370a0823191602480830192602092919082900301818787803b1580156101e857600080fd5b505af11580156101fc573d6000803e3d6000fd5b505050506040513d602081101561021257600080fd5b50516000908155604080517fdd62ed3e00000000000000000000000000000000000000000000000000000000815273ffffffffffffffffffffffffffffffffffffffff868116600483015230811660248301529151339092169263dd62ed3e926044808401936020939083900390910190829087803b15801561029457600080fd5b505af11580156102a8573d6000803e3d6000fd5b505050506040513d60208110156102be57600080fd5b5051600155604080517f23b872dd00000000000000000000000000000000000000000000000000000000815273ffffffffffffffffffffffffffffffffffffffff8581166004830152308116602483015260448201859052915133909216916323b872dd916064808201926020929091908290030181600087803b15801561034557600080fd5b505af1158015610359573d6000803e3d6000fd5b505050506040513d602081101561036f57600080fd5b506001949350505050565b60025473ffffffffffffffffffffffffffffffffffffffff1681565b6002805473ffffffffffffffffffffffffffffffffffffffff19163373ffffffffffffffffffffffffffffffffffffffff161790555600a165627a7a72305820ab7c0b07405a29b40d38aa2aa74aae41c73ac39b500a4b397a5261eb0b9b23b90029",
  "source": "pragma solidity ^0.4.23;\n\nimport \"./Token.sol\";\n\ncontract Target {\n\n\tuint256 public a;\n\tuint256 public b;\n\n\taddress public sent;\n\n\tfunction setO() public {\n\t\tsent = msg.sender;\n\t}\n\n\tfunction setA(address sender, uint256 _a) public returns(bool) {\n\t\tsent = sender;\n\n\t\ta = Token(msg.sender).balanceOf(sender);\n\t\tb = Token(msg.sender).allowance(sender, address(this));\n\t\tToken(msg.sender).transferFrom(sender, address(this), _a);\n\t\treturn true;\n\t}\n  \n}",
  "sourcePath": "/Users/georgispasov/Development/LimeLabs/erc827/contracts/Target.sol",
  "compiler": {
    "name": "solc",
    "version": "0.4.23+commit.124ca40d.Emscripten.clang"
  },
  "schemaVersion": "2.0.0",
  "updatedAt": "2018-06-14T06:24:18.623Z"
}