{
  "contractName": "Token",
  "abi": [
    {
      "constant": true,
      "inputs": [],
      "name": "mintingFinished",
      "outputs": [
        {
          "name": "",
          "type": "bool"
        }
      ],
      "payable": false,
      "stateMutability": "view",
      "type": "function"
    },
    {
      "constant": false,
      "inputs": [
        {
          "name": "_spender",
          "type": "address"
        },
        {
          "name": "_value",
          "type": "uint256"
        }
      ],
      "name": "approve",
      "outputs": [
        {
          "name": "",
          "type": "bool"
        }
      ],
      "payable": false,
      "stateMutability": "nonpayable",
      "type": "function"
    },
    {
      "constant": true,
      "inputs": [],
      "name": "totalSupply",
      "outputs": [
        {
          "name": "",
          "type": "uint256"
        }
      ],
      "payable": false,
      "stateMutability": "view",
      "type": "function"
    },
    {
      "constant": false,
      "inputs": [
        {
          "name": "_from",
          "type": "address"
        },
        {
          "name": "_to",
          "type": "address"
        },
        {
          "name": "_value",
          "type": "uint256"
        }
      ],
      "name": "transferFrom",
      "outputs": [
        {
          "name": "",
          "type": "bool"
        }
      ],
      "payable": false,
      "stateMutability": "nonpayable",
      "type": "function"
    },
    {
      "constant": false,
      "inputs": [
        {
          "name": "_to",
          "type": "address"
        },
        {
          "name": "_value",
          "type": "uint256"
        },
        {
          "name": "_data",
          "type": "bytes"
        }
      ],
      "name": "transferAndCall",
      "outputs": [
        {
          "name": "",
          "type": "bool"
        }
      ],
      "payable": true,
      "stateMutability": "payable",
      "type": "function"
    },
    {
      "constant": false,
      "inputs": [
        {
          "name": "_to",
          "type": "address"
        },
        {
          "name": "_amount",
          "type": "uint256"
        }
      ],
      "name": "mint",
      "outputs": [
        {
          "name": "",
          "type": "bool"
        }
      ],
      "payable": false,
      "stateMutability": "nonpayable",
      "type": "function"
    },
    {
      "constant": false,
      "inputs": [
        {
          "name": "_spender",
          "type": "address"
        },
        {
          "name": "_subtractedValue",
          "type": "uint256"
        }
      ],
      "name": "decreaseApproval",
      "outputs": [
        {
          "name": "",
          "type": "bool"
        }
      ],
      "payable": false,
      "stateMutability": "nonpayable",
      "type": "function"
    },
    {
      "constant": true,
      "inputs": [
        {
          "name": "_owner",
          "type": "address"
        }
      ],
      "name": "balanceOf",
      "outputs": [
        {
          "name": "",
          "type": "uint256"
        }
      ],
      "payable": false,
      "stateMutability": "view",
      "type": "function"
    },
    {
      "constant": false,
      "inputs": [],
      "name": "renounceOwnership",
      "outputs": [],
      "payable": false,
      "stateMutability": "nonpayable",
      "type": "function"
    },
    {
      "constant": false,
      "inputs": [],
      "name": "finishMinting",
      "outputs": [
        {
          "name": "",
          "type": "bool"
        }
      ],
      "payable": false,
      "stateMutability": "nonpayable",
      "type": "function"
    },
    {
      "constant": true,
      "inputs": [],
      "name": "owner",
      "outputs": [
        {
          "name": "",
          "type": "address"
        }
      ],
      "payable": false,
      "stateMutability": "view",
      "type": "function"
    },
    {
      "constant": false,
      "inputs": [
        {
          "name": "_spender",
          "type": "address"
        },
        {
          "name": "_addedValue",
          "type": "uint256"
        },
        {
          "name": "_data",
          "type": "bytes"
        }
      ],
      "name": "increaseApprovalAndCall",
      "outputs": [
        {
          "name": "",
          "type": "bool"
        }
      ],
      "payable": true,
      "stateMutability": "payable",
      "type": "function"
    },
    {
      "constant": false,
      "inputs": [
        {
          "name": "_to",
          "type": "address"
        },
        {
          "name": "_value",
          "type": "uint256"
        }
      ],
      "name": "transfer",
      "outputs": [
        {
          "name": "",
          "type": "bool"
        }
      ],
      "payable": false,
      "stateMutability": "nonpayable",
      "type": "function"
    },
    {
      "constant": false,
      "inputs": [
        {
          "name": "_from",
          "type": "address"
        },
        {
          "name": "_to",
          "type": "address"
        },
        {
          "name": "_value",
          "type": "uint256"
        },
        {
          "name": "_data",
          "type": "bytes"
        }
      ],
      "name": "transferFromAndCall",
      "outputs": [
        {
          "name": "",
          "type": "bool"
        }
      ],
      "payable": true,
      "stateMutability": "payable",
      "type": "function"
    },
    {
      "constant": false,
      "inputs": [
        {
          "name": "_spender",
          "type": "address"
        },
        {
          "name": "_value",
          "type": "uint256"
        },
        {
          "name": "_data",
          "type": "bytes"
        }
      ],
      "name": "approveAndCall",
      "outputs": [
        {
          "name": "",
          "type": "bool"
        }
      ],
      "payable": true,
      "stateMutability": "payable",
      "type": "function"
    },
    {
      "constant": false,
      "inputs": [
        {
          "name": "_spender",
          "type": "address"
        },
        {
          "name": "_subtractedValue",
          "type": "uint256"
        },
        {
          "name": "_data",
          "type": "bytes"
        }
      ],
      "name": "decreaseApprovalAndCall",
      "outputs": [
        {
          "name": "",
          "type": "bool"
        }
      ],
      "payable": true,
      "stateMutability": "payable",
      "type": "function"
    },
    {
      "constant": false,
      "inputs": [
        {
          "name": "_spender",
          "type": "address"
        },
        {
          "name": "_addedValue",
          "type": "uint256"
        }
      ],
      "name": "increaseApproval",
      "outputs": [
        {
          "name": "",
          "type": "bool"
        }
      ],
      "payable": false,
      "stateMutability": "nonpayable",
      "type": "function"
    },
    {
      "constant": true,
      "inputs": [
        {
          "name": "_owner",
          "type": "address"
        },
        {
          "name": "_spender",
          "type": "address"
        }
      ],
      "name": "allowance",
      "outputs": [
        {
          "name": "",
          "type": "uint256"
        }
      ],
      "payable": false,
      "stateMutability": "view",
      "type": "function"
    },
    {
      "constant": false,
      "inputs": [
        {
          "name": "_newOwner",
          "type": "address"
        }
      ],
      "name": "transferOwnership",
      "outputs": [],
      "payable": false,
      "stateMutability": "nonpayable",
      "type": "function"
    },
    {
      "anonymous": false,
      "inputs": [
        {
          "indexed": true,
          "name": "to",
          "type": "address"
        },
        {
          "indexed": false,
          "name": "amount",
          "type": "uint256"
        }
      ],
      "name": "Mint",
      "type": "event"
    },
    {
      "anonymous": false,
      "inputs": [],
      "name": "MintFinished",
      "type": "event"
    },
    {
      "anonymous": false,
      "inputs": [
        {
          "indexed": true,
          "name": "previousOwner",
          "type": "address"
        }
      ],
      "name": "OwnershipRenounced",
      "type": "event"
    },
    {
      "anonymous": false,
      "inputs": [
        {
          "indexed": true,
          "name": "previousOwner",
          "type": "address"
        },
        {
          "indexed": true,
          "name": "newOwner",
          "type": "address"
        }
      ],
      "name": "OwnershipTransferred",
      "type": "event"
    },
    {
      "anonymous": false,
      "inputs": [
        {
          "indexed": true,
          "name": "owner",
          "type": "address"
        },
        {
          "indexed": true,
          "name": "spender",
          "type": "address"
        },
        {
          "indexed": false,
          "name": "value",
          "type": "uint256"
        }
      ],
      "name": "Approval",
      "type": "event"
    },
    {
      "anonymous": false,
      "inputs": [
        {
          "indexed": true,
          "name": "from",
          "type": "address"
        },
        {
          "indexed": true,
          "name": "to",
          "type": "address"
        },
        {
          "indexed": false,
          "name": "value",
          "type": "uint256"
        }
      ],
      "name": "Transfer",
      "type": "event"
    }
  ],
  "bytecode": "0x608060405260038054600160a860020a03191633600160a060020a0316179055610f058061002e6000396000f3006080604052600436106101065763ffffffff7c010000000000000000000000000000000000000000000000000000000060003504166305d2035b811461010b578063095ea7b31461013457806318160ddd1461015857806323b872dd1461017f5780634000aea0146101a957806340c10f1914610205578063661884631461022957806370a082311461024d578063715018a61461026e5780637d64bcb4146102855780638da5cb5b1461029a57806390db623f146102cb578063a9059cbb14610327578063c1d34b891461034b578063cae9ca51146103ad578063cb3993be14610409578063d73dd62314610465578063dd62ed3e14610489578063f2fde38b146104b0575b600080fd5b34801561011757600080fd5b506101206104d1565b604080519115158252519081900360200190f35b34801561014057600080fd5b50610120600160a060020a03600435166024356104f2565b34801561016457600080fd5b5061016d61055c565b60408051918252519081900360200190f35b34801561018b57600080fd5b50610120600160a060020a0360043581169060243516604435610562565b604080516020600460443581810135601f8101849004840285018401909552848452610120948235600160a060020a03169460248035953695946064949201919081908401838280828437509497506106e29650505050505050565b34801561021157600080fd5b50610120600160a060020a036004351660243561079d565b34801561023557600080fd5b50610120600160a060020a03600435166024356108bc565b34801561025957600080fd5b5061016d600160a060020a03600435166109b5565b34801561027a57600080fd5b506102836109d0565b005b34801561029157600080fd5b50610120610a42565b3480156102a657600080fd5b506102af610af6565b60408051600160a060020a039092168252519081900360200190f35b604080516020600460443581810135601f8101849004840285018401909552848452610120948235600160a060020a0316946024803595369594606494920191908190840183828082843750949750610b059650505050505050565b34801561033357600080fd5b50610120600160a060020a0360043516602435610b32565b604080516020601f60643560048181013592830184900484028501840190955281845261012094600160a060020a038135811695602480359092169560443595369560849401918190840183828082843750949750610c2b9650505050505050565b604080516020600460443581810135601f8101849004840285018401909552848452610120948235600160a060020a0316946024803595369594606494920191908190840183828082843750949750610ce89650505050505050565b604080516020600460443581810135601f8101849004840285018401909552848452610120948235600160a060020a0316946024803595369594606494920191908190840183828082843750949750610d159650505050505050565b34801561047157600080fd5b50610120600160a060020a0360043516602435610d42565b34801561049557600080fd5b5061016d600160a060020a0360043581169060243516610de4565b3480156104bc57600080fd5b50610283600160a060020a0360043516610e0f565b60035474010000000000000000000000000000000000000000900460ff1681565b600160a060020a03338116600081815260026020908152604080832094871680845294825280832086905580518681529051929493927f8c5be1e5ebec7d5bd14f71427d1e84f3dd0314c0f7b2291e5b200ac8c7c3b925929181900390910190a350600192915050565b60015490565b6000600160a060020a038316151561057957600080fd5b600160a060020a03841660009081526020819052604090205482111561059e57600080fd5b600160a060020a03808516600090815260026020908152604080832033909416835292905220548211156105d157600080fd5b600160a060020a0384166000908152602081905260409020546105fa908363ffffffff610e3616565b600160a060020a03808616600090815260208190526040808220939093559085168152205461062f908363ffffffff610e4816565b600160a060020a0380851660009081526020818152604080832094909455878316825260028152838220339093168252919091522054610675908363ffffffff610e3616565b600160a060020a038086166000818152600260209081526040808320338616845282529182902094909455805186815290519287169391927fddf252ad1be2c89b69c2b068fc378daa952ba7f163c4a11628f55a4df523b3ef929181900390910190a35060019392505050565b600030600160a060020a031684600160a060020a03161415151561070557600080fd5b61070f8484610b32565b5083600160a060020a0316348360405180828051906020019080838360005b8381101561074657818101518382015260200161072e565b50505050905090810190601f1680156107735780820380516001836020036101000a031916815260200191505b5091505060006040518083038185875af192505050151561079357600080fd5b5060019392505050565b60035460009033600160a060020a039081169116146107bb57600080fd5b60035474010000000000000000000000000000000000000000900460ff16156107e357600080fd5b6001546107f6908363ffffffff610e4816565b600155600160a060020a038316600090815260208190526040902054610822908363ffffffff610e4816565b600160a060020a03841660008181526020818152604091829020939093558051858152905191927f0f6798a560793a54c3bcfe86a93cde1e73087d944c0ea20544137d412139688592918290030190a2604080518381529051600160a060020a038516916000917fddf252ad1be2c89b69c2b068fc378daa952ba7f163c4a11628f55a4df523b3ef9181900360200190a350600192915050565b600160a060020a0333811660009081526002602090815260408083209386168352929052908120548083111561091957600160a060020a033381166000908152600260209081526040808320938816835292905290812055610950565b610929818463ffffffff610e3616565b600160a060020a033381166000908152600260209081526040808320938916835292905220555b600160a060020a0333811660008181526002602090815260408083209489168084529482529182902054825190815291517f8c5be1e5ebec7d5bd14f71427d1e84f3dd0314c0f7b2291e5b200ac8c7c3b9259281900390910190a35060019392505050565b600160a060020a031660009081526020819052604090205490565b60035433600160a060020a039081169116146109eb57600080fd5b600354604051600160a060020a03909116907ff8df31144d9c2f0f6b59d69b8b98abd5459d07f2742c4df920b25aae33c6482090600090a26003805473ffffffffffffffffffffffffffffffffffffffff19169055565b60035460009033600160a060020a03908116911614610a6057600080fd5b60035474010000000000000000000000000000000000000000900460ff1615610a8857600080fd5b600380547fffffffffffffffffffffff00ffffffffffffffffffffffffffffffffffffffff16740100000000000000000000000000000000000000001790556040517fae5184fba832cb2b1f702aca6117b8d265eaf03ad33eb133f19dde0f5920fa0890600090a150600190565b600354600160a060020a031681565b600030600160a060020a031684600160a060020a031614151515610b2857600080fd5b61070f8484610d42565b6000600160a060020a0383161515610b4957600080fd5b600160a060020a033316600090815260208190526040902054821115610b6e57600080fd5b600160a060020a033316600090815260208190526040902054610b97908363ffffffff610e3616565b600160a060020a033381166000908152602081905260408082209390935590851681522054610bcc908363ffffffff610e4816565b600160a060020a03808516600081815260208181526040918290209490945580518681529051919333909316927fddf252ad1be2c89b69c2b068fc378daa952ba7f163c4a11628f55a4df523b3ef92918290030190a350600192915050565b600030600160a060020a031684600160a060020a031614151515610c4e57600080fd5b610c59858585610562565b5083600160a060020a0316348360405180828051906020019080838360005b83811015610c90578181015183820152602001610c78565b50505050905090810190601f168015610cbd5780820380516001836020036101000a031916815260200191505b5091505060006040518083038185875af1925050501515610cdd57600080fd5b506001949350505050565b600030600160a060020a031684600160a060020a031614151515610d0b57600080fd5b61070f84846104f2565b600030600160a060020a031684600160a060020a031614151515610d3857600080fd5b61070f84846108bc565b600160a060020a033381166000908152600260209081526040808320938616835292905290812054610d7a908363ffffffff610e4816565b600160a060020a0333811660008181526002602090815260408083209489168084529482529182902085905581519485529051929391927f8c5be1e5ebec7d5bd14f71427d1e84f3dd0314c0f7b2291e5b200ac8c7c3b9259281900390910190a350600192915050565b600160a060020a03918216600090815260026020908152604080832093909416825291909152205490565b60035433600160a060020a03908116911614610e2a57600080fd5b610e3381610e5b565b50565b600082821115610e4257fe5b50900390565b81810182811015610e5557fe5b92915050565b600160a060020a0381161515610e7057600080fd5b600354604051600160a060020a038084169216907f8be0079c531659141344cd1fd0a4f28419497f9722a3daafe3b4186f6b6457e090600090a36003805473ffffffffffffffffffffffffffffffffffffffff1916600160a060020a03929092169190911790555600a165627a7a723058207ba0cf2cf5c7b1719ec34094fe8679730f69a1a82b6cc798a903ce14c97222da0029",
  "source": "pragma solidity ^0.4.23;\n\nimport \"openzeppelin-solidity/contracts/token/ERC827/ERC827Token.sol\";\nimport \"openzeppelin-solidity/contracts/token/ERC20/MintableToken.sol\";\n\ncontract Token is ERC827Token, MintableToken {\n  \n}",
  "sourcePath": "/Users/georgispasov/Development/LimeLabs/erc827/contracts/Token.sol",
  "compiler": {
    "name": "solc",
    "version": "0.4.23+commit.124ca40d.Emscripten.clang"
  },
  "schemaVersion": "2.0.0",
  "updatedAt": "2018-06-14T06:24:18.719Z"
}